:020000040800F2
:10000000888200206D050008750500087705000846
:10001000790500087B0500087D0500087F050008BC
:10002000810500088305000885050008A502000871
:10003000890500088B0500082D0300087D030008D2
:100040009105000891050008910500089105000838
:100050009105000891050008F77100080172000879
:100060000B720008157200081F720008454E000848
:1000700091050008910500087361000891050008CA
:1000800091050008910500089105000891050008F8
:10009000796600089105000891050008297200089A
:1000A00091050008910500089105000831550008E8
:1000B0003D550008495500085555000891050008B0
:1000C00091050008910500089105000891050008B8
:1000D00091050008910500089105000891050008A8
:1000E0003572000891050008910500089105000887
:1000F0009105000891050008910500089105000888
:100100009105000891050008910500089105000877
:100110009105000891050008910500089105000867
:100120009105000891050008910500089105000857
:1001300000F002F800F072F80AA090E8000C824487
:100140008344AAF10107DA4501D100F067F8AFF264
:10015000090EBAE80F0013F0010F18BFFB1A43F0A5
:1001600001031847EC1502000C1602000A444FF078
:10017000000C10F8013B13F0070408BF10F8014B06
:100180001D1108BF10F8015B641E05D010F8016B4B
:10019000641E01F8016BF9D113F0080F1EBF10F8AF
:1001A000014BAD1C0C1B09D16D1E58BF01F801CBD2
:1001B000FAD505E014F8016B01F8016B6D1EF9D555
:1001C0009142D6D37047000000230024002500266A
:1001D000103A28BF78C1FBD8520728BF30C148BFAA
:1001E0000B6070471FB59DE8030016F098FE16F0EF
:1001F00079FE0400002000211EF01AF9401C606006
:10020000002000211EF02AF9E06016F07BFD16F0B8
:1002100015FA1FBD10B516F0EDFD10BD17F086F8EC
:100220001146FFF7DFFF07F083FB17F0C7FB03B4AE
:10023000FFF7F0FF03BC04F0A6F8000080F3098884
:100240007047EFF309807047684680F309880448D7
:100250000078C00714BF0220032080F31488704781
:1002600024070208DFF818C0EFF305831B0618BF48
:100270006047EFF31483DB0708BF604700DF704778
:10028000E5CC0108DFF818C0EFF305831B0618BFA3
:100290006047EFF31483DB0708BF604700DF704758
:1002A00045CE0108EFF30980816911F8021C39BBC2
:1002B00090E80F10E047EFF3098C194B93E8060024
:1002C000914218D059B10CB44FF0010381F821309C
:1002D0002CE9F00FC1F824C01DF02EF90CBC1A60F7
:1002E000D2F824C0BCE8F00F92F821308CF30988D2
:1002F0001BB192F82000CCF800006FF0020E70479E
:1003000010B5084A1268914209D8074C54F82140A8
:1003100090E80F10A047EFF3098C8CE80F0010BD98
:100320008404002024870108248701081CF0A2FF10
:10033000114B93E8060091421BD00CB44FF0000320
:1003400081F82130EFF3098C2CE9F00FC1F824C0BB
:100350001DF0F2F80CBC1A60D2F824C0BCE8F00F13
:100360008CF3098892F821301BB192F82030CCF838
:1003700000306FF0020E7047840400201DF0AEF9CB
:10038000D6E700001CF02CFC1DF0A8F9D0E7000017
:100390000CB50020019000906B48006840F480305C
:1003A0006949086000BF6848006800F400300090A8
:1003B0000198401C0190009818B90198B0F5A06F01
:1003C000F1D16148006810F4003F02D00120009094
:1003D00001E0002000900098012842D15B480068AD
:1003E00040F01000594908600846006820F00300FA
:1003F00008600846006840F0020008605248406803
:10040000514948600846406848600846406840F4E2
:10041000806048600846406820F47C1048600846C8
:10042000406840F4E81048600846006840F080707A
:10043000086000BF4448006810F0007FFAD04248CE
:10044000406820F00300404948600846406840F09A
:100450000200486000BF3C48406800F00C000828DB
:10046000F9D10CBD10B5FFF793FF10BD10B536489C
:10047000006840F00100344908600846406834498B
:1004800008403149486008460068324908402E4912
:1004900008600846006820F480200860084640682C
:1004A00020F4FE0048604FF41F008860FFF7DAFF79
:1004B0004FF000602849086010BD10B500210020F1
:1004C0000022214B5B6803F00C0121B1042906D006
:1004D000082928D107E0214B214C236027E01F4B3E
:1004E0001F4C236023E0184B5B6803F47010164B1D
:1004F0005B6803F48032022303EB904022B9194B6E
:100500004343174C23600DE00F4B5B6813F4003F2F
:1005100004D0144B4343124C236003E00F4B43437E
:100520000F4C236003E00D4B0D4C236000BF00BF58
:10053000054B5B68C3F303130B4CE15C084B1B6872
:10054000CB40074C236010BD001002400020024049
:100550000000FFF8FFFFF6FE08ED00E000127A0051
:100560000000002000093D00040000200C488047E6
:100570000C480047FEE7FEE7FEE7FEE7FEE7FEE782
:10058000FEE7FEE7FEE7FEE7FEE7FEE7FEE7FEE743
:10059000FEE7000004480549054A064B7047000085
:1005A0006D04000831010008887200208882002054
:1005B000887A0020887A002000201D4908604FF4C6
:1005C00006401C490880084600881949091F086030
:1005D000002070472DE9F04104460E46154604F010
:1005E0007F0001F05BF90746AAB23946304600F0B9
:1005F0003FFFA9B204F07F0001F06CF90020BDE8D4
:10060000F0812DE9F04104460E46002504F07F00FC
:1006100001F0AFF9054604F07F0001F04FF90746FD
:100620002A463946304600F03DFF2846BDE8F081B5
:10063000445C00402600002010B504462CB901207F
:10064000FE4909680882002010BDFD490968086854
:100650008047FA4800680A30F6E710B5F7480068A6
:10066000C078F8494978884213DCF44800688078FB
:1006700078B9F2480068808858B9F0480068C078B6
:10068000EE4909688872EE49096848688047002089
:1006900010BD0220FCE710B504462CB90120E74943
:1006A00009680882002010BDE5490968886880470C
:1006B000E24800680C30F6E710B5E04B1B68D978CB
:1006C000DE4B1B685879E04B1B689A6990470446DB
:1006D000DA480068807AE8B13CB9D8480068007907
:1006E00018B9D6480068807808B1022010BD8CB9CE
:1006F000D3490968C8688047D04800684079CF4925
:100700000968C872CD480068C078CC490968087388
:100710000020EBE70220E9E710B504462CB90220DF
:10072000C64909680882002010BD0020C74908801A
:10073000C2480068007810F07F0F23D1BF490968D4
:10074000487A10F0200F06D0C049097841F0020124
:10075000BE4A117005E0BD49097801F0FD01BB4AB0
:10076000117010F0400F06D0B849097841F001012E
:10077000B64A117005E0B549097801F0FE01B34AA7
:10078000117036E0AD480068007800F07F00012865
:1007900001D1AE48C8E7A9480068007800F07F00A2
:1007A000022824D1A54A1268517901F00F0011F0F6
:1007B000800F0DD0A64A52F8202002F03002102AF5
:1007C00014D1A24A127842F00102A04B1A700DE037
:1007D0009F4A52F8202002F44052B2F5805F05D1C2
:1007E0009A4A127842F00102984B1A7001E00020F8
:1007F0009AE79349096808698047944894E72DE986
:10080000F0478E480068007800F07F08B8F1000FCC
:100810000AD18A480068407A00F0DF0087490968F9
:1008200048720020BDE8F087B8F1020F7ED18348FE
:100830000068408818B981480068007908B1022032
:10084000F0E7DFF800927D480068477927F08005DF
:100850002C467A480068407910F0800F05D07C481B
:1008600050F8240000F0300604E0794850F82400E5
:1008700000F4405699F80000A84204D91EB16F4810
:100880000068807A08B90220CCE717F0800F0ED0FC
:100890006F4850F8240000F0300010283FD1204667
:1008A00000F0B3FF2046302100F05BFE37E06848DF
:1008B00050F8240000F44050B0F5805F2FD1C4B947
:1008C000644A92F82C10204601F025F8604951F84E
:1008D00024104BF68F7201EA020080F4805080F4FD
:1008E000005040F4004141F08001594A42F8241080
:1008F00015E0204600F073FF554951F824104BF6DF
:100900008F7201EA020080F4805080F4005040F4BD
:10091000004141F080014E4A42F8241000BF48498E
:1009200009684869804700207CE7FFE700BF022094
:1009300078E72DE9F04141480068467926F08007C4
:100940003C463E480068407910F0800F05D0404892
:1009500050F8240000F0300504E03D4850F8240031
:1009600000F4405537480078A04208D93348006861
:10097000408820B91DB131480068807A10B9022042
:10098000BDE8F08116F0800F10D0314951F82410E5
:1009900048F6BF7201EA020080F0100040F4004106
:1009A00041F080012A4A42F8241010E0284951F809
:1009B00024104BF68F7201EA020080F4805040F45C
:1009C000004141F08001224A42F8241000BF1C4936
:1009D0000968886980470020D2E710B51748006889
:1009E000407A40F0200015490968487214490968A6
:1009F000C8698047002010BD10B502460F48006846
:100A0000438A32B98888C01A0C4C2468208200209E
:100A100010BD08681844FBE72DE9F041074800685D
:100A200000F110042688A06838B336B3A588B54213
:100A300000D935462846A16888470DE01C000020F3
:100A40002800002090010020200000201600002037
:100A5000005C0040B41A002007462088401B20801C
:100A6000608828446080002000F028FF80462A46E5
:100A70004146384600F016FD00BF208850B14FF4C3
:100A80004050FA4908800021084600F023FF30203A
:100A9000F74908802088A188884204DB0320F549B3
:100AA0000968087218E02088002804DD0520F14953
:100AB0000968087210E0208870B90620ED490968BD
:100AC00008720021EC48006880B2801CEB4A42F8B2
:100AD00010103020E6490880BDE8F0812DE9F0478C
:100AE000E448006800F110052E88E2480068077AA3
:100AF000D6B9042F18D1E248007801280FD100217F
:100B0000DD48006880B2801CDC4A42F810103020BA
:100B1000D749088000BF0020D949087003E00727A3
:100B20001020D349088027E0AC88A64201D80420D1
:100B300000E002200746B44200D934462046A968A6
:100B400088478046002000F0A9FE8146224649469B
:100B5000404600F08DFC2146002000F0BBFE2888B6
:100B6000001B28806888204468803020C0490880A5
:100B70000002BE49088000BFBE4800680772BDE899
:100B8000F08770B50226BB4800684478B948006811
:100B9000007810F07F0F44D1092C03D1FFF75DFDE1
:100BA00006465FE0052C14D1B2480068C0787F2863
:100BB0000BDCB0480068807838B9AE48006880889F
:100BC00018B9AC480068807A08B1082565E00026AD
:100BD00048E0032C0ED1A7480068C078012807D14F
:100BE000A4480068808818B9FFF7F7FE064639E088
:100BF000022637E0012C35D19E480068C0780128D4
:100C00000DD19C480068808848B99A480068407AAD
:100C100010F0200F03D0FFF7F2FD064622E0022677
:100C200020E094480068007800F07F00012805D19A
:100C30000B2C17D1FFF740FD064613E08D480068E6
:100C4000007800F07F0002280BD1012C03D1FFF7C0
:100C5000D6FD064606E0032C04D1FFF76AFE0646E1
:100C600000E002264EB12046864A12685169884744
:100C70000646032E01D109250FE00EB108250CE030
:100C8000062500217C48006880B2801C7B4A42F81F
:100C9000101030207649088000BF76480068057241
:100CA00070BD2DE9F84F7348006845780027BA46B3
:100CB000062D1AD16F480068007810F07F0F13D10D
:100CC0006C4909688878012803D16E490968CF69A1
:100CD0000AE0022803D16B4909680F6A04E003287F
:100CE00002D1684909684F6A97E0002D65D16148D3
:100CF00000684088002860D15E480068C0880228EB
:100D00005BD15C4800680079002856D159480068DA
:100D1000007810F07F0F06D156480068808810B91F
:100D2000AFF20B6779E053480068007800F07F006D
:100D3000012811D14F4909684879524909688A69DF
:100D400000219047002868D14A480068807A00282E
:100D500063D0AFF23B6760E046480068007800F07F
:100D60007F00022859D143480068407900F00F06FF
:100D700040480068407900F070093E4800684079BA
:100D800010F0800F06D03C48503850F8260000F094
:100D9000300805E03848503850F8260000F4405834
:100DA00039480078B04238D9B9F1000F35D1B8F1DF
:100DB000000F32D0AFF29F672FE0082D08D12D48E9
:100DC0000068007810F07F0F27D1AFF2937724E00E
:100DD0000A2D22D127480068007800F07F00012802
:100DE0001BD124480068807AB8B122480068408846
:100DF00098B920480068007978B91E480068C08812
:100E000001280AD11B49096848791E4909688A697D
:100E10000021904708B9AFF2817757B115480068B3
:100E2000A0F812A01348006887610020B84700248A
:100E30000FE0104A12685078124A12681169884708
:100E40000446032C05D109200A4909680872BDE847
:100E5000F88F08480068008AA0F57F41FF3915D156
:100E60000920044909680872F1E700002C000020FD
:100E70002E0000201C000020505C0040006000405C
:100E8000140000202000002090010020022C03D03C
:100E90009D480068008A20B908209B4909680872AB
:100EA000D5E799480068007810F0800F3CD096484C
:100EB0000068C088009094480068008A00998842C1
:100EC00004D9914900980968088223E08E48006897
:100ED000008A8D490968C98888421BDA8A480068F7
:100EE000008A8A49096891F82C10884203DA0020A8
:100EF000874908700EE084480068008A83490968C1
:100F000091F82C1090FBF1F201FB120010B90120B6
:100F10007F4908707D48006890F82C107A48006876
:100F20008182FFF7DBFD06E003207749096808723C
:100F300000037849088000BF89E710B5764890F82B
:100F40002C10002000F0E7FC6F480068007A0828A9
:100F500005D140026F4908801020704908806A4816
:100F60000068007A092801D1012010BD0020FCE7AB
:100F700038B501246A48006880B2001D694931F81B
:100F8000100080B201EB400000905F480068007ADA
:100F9000092832D0009800785B49096808700098E9
:100FA000401C0090009800785749096848700098E4
:100FB000401C0090009800EB44000090009931F82C
:100FC000020B009100F040FE4F49096848800098EC
:100FD00000EB44000090009931F8020B009100F002
:100FE00033FE494909688880009800EB440000906E
:100FF0000098008844490968C8800120424909686E
:10100000087241480068C08810B9FFF7BAFD01E0D6
:10101000FFF747FEFFF791FF38BD30B50146424B61
:101020001A78002012E0C3B23D4C503C54F82330F3
:1010300048F68F74234048F280042343C4B223430C
:10104000C4B2374D503D45F82430401C9042EAD39D
:1010500041F08003324C241F236030BD10B52A4874
:101060000068047A022C01D0042C05D1FFF736FD6C
:1010700025480068047A1CE0062C19D12248006833
:10108000407805280ED120480068007810F07F0FC6
:1010900008D11D490968C878FFF7BFFF23490968CF
:1010A000086A80471949096888688047082400E071
:1010B0000824154800680472FFF73FFF10BD10B503
:1010C00011480068047A022C01D0042C01D10824B4
:1010D00012E0032C01D0052C05D1FFF79DFC0A4836
:1010E0000068047A08E0072C05D108490968C86837
:1010F0008047082400E00824034800680472FFF7D2
:101100001CFF10BD704700001C00002020000020C4
:10111000140000202C000020B41A00202E00002013
:10112000505C00400060004090010020280000203A
:1011300010B5084808490860022009680872074885
:1011400007490860074808490860054909680868B0
:10115000804710BDBC0400201C000020B41A0020F1
:1011600020000020E41A00202800002008B50020FC
:10117000009013E1B748008800F00F00B6490870EE
:101180000846007800287DD1B4480068B44908803A
:101190000846008800F03000B2490880B048008856
:1011A00000F44050AE490880AC4909684BF6BF7264
:1011B00001EA020080F4005080F0200040F4004179
:1011C00041F08001A54A1160A248008810F0100F7C
:1011D00031D1FFF743FFA14909684BF6BF7201EA1D
:1011E00002009F49098811F4805F01D080F480508B
:1011F0009B49098811F4005F01D080F4005099499F
:10120000098811F0100F01D080F01000954909886D
:1012100011F0200F01D080F0200040F4004141F097
:1012200080018E4A11601046006848F60F71084030
:101230001146086008BD8948006880B20090BDF87A
:10124000000010F4006F35D0FFF792FE8349096863
:101250004BF6BF7201EA02008149098811F4805FF0
:1012600001D080F480507E49098811F4005F01D0DC
:1012700080F400507B49098811F0100F01D080F0F4
:10128000100000E04FE07749098811F0200F01D0ED
:1012900080F0200040F4004141F080016F4A11606D
:1012A00010460068C0F30E0048F68F7108401146E2
:1012B0000860BFE7BDF8000010F4004F6ED0FFF7E4
:1012C000FEFE664909684BF6BF7201EA02006449F6
:1012D000098811F4805F01D080F48050604909884A
:1012E00011F4005F01D080F400505E49098811F0CC
:1012F000100F01D080F010005A49098811F0200F1A
:1013000001D080F0200040F4004141F08001534AB8
:10131000116010460068C0F30E0048F68F71084057
:101320001146086086E74C4800784C4951F8200087
:1013300080B20090BDF8000010F4004F15D046496F
:101340000978491E484A52F82100804742480078EF
:10135000424951F82000C0F30E0048F68F71084052
:101360003D4909783D4A42F82100BDF8000010F0DF
:10137000800F13D038490978491E3C4A52F82100A1
:10138000804735480078354951F8200048F60F71FC
:10139000084031490978314A42F821002F48443049
:1013A000006880B22B49088010F4004F7FF4E2AE51
:1013B00000BF3FE710B5002441E047F6FF70274922
:1013C000443108602348008800F00F00224908706B
:1013D00008460078214951F8200084B214F4004FE7
:1013E00016D01D490978491E1F4A52F8210080472E
:1013F00019480078194951F82000C0F30E0048F64A
:101400008F71084014490978144A42F8210016E007
:1014100014F0800F13D010490978491E134A52F86E
:10142000210080470C4800780C4951F8200048F60C
:101430000F71084008490978084A42F82100074816
:101440004430006880B20349088010F4004FB4D1E2
:1014500010BD00008C01002018000020005C00403E
:101460002C0000202E000020981A00207C1A00205A
:10147000F0B5144604F1010C4FEA6C07DFF848C0E0
:101480000CEB41033D460AE00678401C90F800C092
:1014900046EA0C2223F8022B9B1C401C6D1E002DDB
:1014A000F2D1F0BDF0B5561C7510074E06EB4104A5
:1014B0002B4605E034F8047B20F8017B401C5B1EC2
:1014C000002BF7D1F0BD000000600040F949086032
:1014D0007047F848006880B27047F649091D0860F7
:1014E0007047F448001D006880B27047F14808302A
:1014F000006880B27047EF490C3108607047ED48D2
:101500000C30006880B270474FF6F8710140E94A2C
:10151000103211607047E7481030006880B27047A1
:10152000E44A403A42F8201070470146E14840380A
:1015300050F8210080B27047DE4A403A52F820202D
:1015400048F68F131A400A43DA4B403B43F82020F9
:1015500070470146D748403850F8210000F4C06079
:10156000704710B5D34B403B53F8203048F6BF745A
:1015700003EA040211F0100F01D082F0100211F002
:10158000200F01D082F0200242F4004343F0800398
:10159000C84C403C44F8203010BD10B5C54B403B12
:1015A00053F820304BF68F7403EA040211F4805F85
:1015B00001D082F4805211F4005F01D082F4005215
:1015C00042F4004343F08003BA4C403C44F82030DE
:1015D00010BD10B502460B461046FFF7A6FF0446A5
:1015E000012B06D124F48050B249403941F8220041
:1015F00007E0022B05D124F01000AE49403941F834
:10160000220010BD0146AB48403850F8210000F0E0
:10161000300070470146A748403850F8210000F4D8
:1016200040507047A34A403A52F8202048F6BF7312
:1016300002EA030181F0100181F0200141F400422F
:1016400042F080029B4B403B43F820207047994A70
:10165000403A52F820204BF68F7302EA030181F4DE
:10166000805181F4005141F4004242F08002914BDC
:10167000403B43F8202070478E49403951F82010F4
:1016800041F4807148F68F72114048F28002114394
:10169000884A403A42F8201070478649403951F84C
:1016A000201048F68F62114048F280021143814AAF
:1016B000403A42F8201070477E49403951F82010D6
:1016C00048F68F62114048F280021143794A403A4D
:1016D00042F8201070477749403951F8201041F402
:1016E000807148F68F72114048F280021143714AAE
:1016F000403A42F8201070476E49403951F82010A6
:1017000041F4807148F68F72114048F28002114313
:10171000684A403A42F8201070476649403951F80B
:10172000201048F68F62114048F280021143614A4E
:10173000403A42F82010704701465E48403850F861
:10174000210000F03000102801D101207047002056
:10175000FCE701465748403850F8210000F440505B
:10176000B0F5805F01D1012070470020FCE75149AE
:10177000403951F82010C1F30E0148F68F72114024
:101780004C4A403A42F8201070474A49403951F8D3
:10179000201048F60F721140464A403A42F8201095
:1017A00070474449403951F8201048F68F72114073
:1017B0004CF2800211433F4A403A42F820107047F1
:1017C0003C49403951F8201048F68F72114048F2D8
:1017D000C0021143374A403A42F820107047354959
:1017E000403951F8201011F4804F0DD03149403963
:1017F00051F8201048F68F7211404CF280021143CC
:101800002C4A403A42F8201070472A49403951F892
:10181000201011F0400F0DD02649403951F820100A
:1018200048F68F72114048F2C0021143214A403AF3
:1018300042F8201070471F4A403A52F8202048F6DC
:101840008F731A4048F280031A430A43194B403BF6
:1018500043F82020704701461648403850F82100D0
:1018600000F00F00704710B54A105300114A1032B3
:10187000126892B202EBC0020F4C44F8123010BD55
:1018800010B54A1053000B4A1032126892B202EBA4
:10189000C002121D084C44F8123010BD0146054824
:1018A0001030006880B200EBC100034A32F810002B
:1018B00080B27047405C0040006000400146E5484F
:1018C000006880B200EBC100001DE34A32F810004E
:1018D00080B27047DF4A126892B202EBC002921CDB
:1018E000DD4B43F81210704702463E290BDD4811CC
:1018F00011F01F0F01D1431E98B24FF4004343EA89
:101900008023136006E0481011F0010F00D0401C46
:1019100083021360704710B50246CE48006880B25B
:1019200000EBC200801DCC4C04EB40033E290BDDD4
:10193000481111F01F0F01D1441EA0B24FF4004412
:1019400044EA80241C6006E0481011F0010F00D02A
:10195000401C84021C6010BD0146BE48006880B275
:1019600000EBC100801CBC4A32F81000C0F3090033
:1019700070470146B748006880B200EBC100801D87
:10198000B54A32F81000C0F30900704730B54B106B
:101990005C00B04B1B689BB203EBC003AE4D45F837
:1019A000134053105C00AB4B1B689BB203EBC003AE
:1019B0001B1D45F8134030BD10B54A105300A54A11
:1019C000126892B202EBC002A34C44F8123010BD70
:1019D00010B54A1053009F4A126892B202EBC0023F
:1019E000121D9D4C44F8123010BD01469948006804
:1019F00080B200EBC100984A32F8100080B2704704
:101A000001469448006880B200EBC100001D924A74
:101A100032F8100080B2704730B50B46012B1ED152
:101A20008C49096889B201EBC001891C8A4D05EB1C
:101A300041043E2A0BDD511112F01F0F01D14D1E42
:101A4000A9B24FF4004545EA8125256006E0511012
:101A500012F0010F00D0491C8D0225600AE0022B14
:101A600008D17C49096889B201EBC001891C7A4C14
:101A700044F81120012B1ED17649096889B201EB87
:101A8000C001891D744D05EB41043E2A0BDD511147
:101A900012F01F0F01D14D1EA9B24FF4004545EAC7
:101AA0008125256006E0511012F0010F00D0491C7D
:101AB0008D0225600AE0022B08D16649096889B2C7
:101AC00001EBC001891D644C44F8112030BD30B5D4
:101AD000034601291ED15F48006880B200EBC300B5
:101AE000801C5D4D05EB40043E2A0BDD501112F0C9
:101AF0001F0F01D1451EA8B24FF4004545EA8025CD
:101B0000256006E0501012F0010F00D0401C850245
:101B100025600AE0022908D14E48006880B200EB37
:101B2000C300801C4C4C44F8102030BD30B5034637
:101B300001291ED14748006880B200EBC300801D18
:101B4000454D05EB40043E2A0BDD501112F01F0FEE
:101B500001D1451EA8B24FF4004545EA8025256015
:101B600006E0501012F0010F00D0401C85022560E5
:101B70000AE0022908D13748006880B200EBC300B0
:101B8000801D354C44F8102030BD014631480068B6
:101B900080B200EBC100801C2F4A32F81000C0F365
:101BA0000900704701462B48006880B200EBC10075
:101BB000801D294A32F81000C0F309007047014621
:101BC0002448006880B200EBC100801D224A32F830
:101BD000100010F47C4F01D0012070471D480068B0
:101BE00080B200EBC100801C1B4A32F81000800557
:101BF000800D01D00220F0E70020EEE701290ED190
:101C0000144A503A52F8202048F68F731A4048F28E
:101C1000C0031A430F4B503B43F820200FE002292A
:101C20000DD10C4A503A52F8202048F68F731A40D2
:101C30004CF280031A43074B503B43F82020704777
:101C4000024641EA022070470146CAB20B1243EA3B
:101C500002207047505C0040006000402DE9F043D6
:101C600004460D469C46079F1146C819C1B2481E3E
:101C7000C1B294F8456094F847801346084643453E
:101C80000CDCB04202DB4FF0010913E0834202DDBD
:101C90004FF001090EE04FF000090BE0B04207DB06
:101CA000834202DD4FF0010904E04FF0000901E03A
:101CB0004FF00009B9F1000F02D10020BDE8F08318
:101CC000294601EB0C00C1B2481EC1B294F8446031
:101CD00094F846802B46084643450CDCB04202DBB4
:101CE0004FF0010913E0834202DD4FF001090EE0DD
:101CF0004FF000090BE0B04207DB834202DD4FF0FA
:101D0000010904E04FF0000901E04FF000094846E6
:101D1000D4E770B505460C4600231A460121284633
:101D2000A668B04770BD70B505460C4600231A463C
:101D300019462846A668B04770BD2DE9F041054612
:101D40000C4616460023324603212846A768B847AA
:101D5000BDE8F08170B505460C4600231A46042103
:101D60002846A668B04770BD70B505460C460023EE
:101D7000012204212846A668B04770BD2DE9F04134
:101D800005460C4616460023324602212846A7681F
:101D9000B847BDE8F0812DE9F04105460C461646EE
:101DA0000023324605212846A768B847BDE8F081E0
:101DB0002DE9F04105460C4616461F463B46324685
:101DC00006212846D4F808C0E047BDE8F0812DE997
:101DD000F04105460C4616461F463B463246072153
:101DE0002846D4F808C0E047BDE8F0812DE9F0416D
:101DF00006460F4615464FF0000800BF2C78B8F194
:101E0000000F0DD1FF2C08D0224639463046FFF78F
:101E1000C2FF002844D1BDE8F0814FF001083FE047
:101E2000FF2C07D1224639463046FFF7B4FF68BB86
:101E30000020F0E7FE2C00D134E0F02C2EDAE02C6C
:101E400006DB04F00F0239463046FFF797FF25E026
:101E5000D02C06DB04F00F0239463046FFF76DFF49
:101E60001CE0C02C13DB39463046FFF773FF04F04B
:101E70000F042401A01CC4B2204602F04CF83946DD
:101E80003046FFF771FF204602F045F806E0BE2C11
:101E900004DA7F2C02DC204602F03DF84FF0000807
:101EA0006D1CABE700BF0120B5E730B504461D4609
:101EB00007290AD2DFE801F005040906090708002E
:101EC00003E002E001E000E000BF00BF012030BD00
:101ED00002460A441078704702460A441078521CA1
:101EE0004FF6FF7303EA00201378034498B270475B
:101EF00010B5044600212046FFF7EAFF10BD10B5DB
:101F000004462046FFF7F4FF10B1012804D101E098
:101F1000062010BD0320FCE70320FAE710B50446B5
:101F200001212046FFF7D4FF10BD10B50446022161
:101F30002046FFF7CDFF10BD10B504460321204613
:101F4000FFF7C6FF40B210BD10B50446042120467D
:101F5000FFF7BEFF40B210BD10B504460521204674
:101F6000FFF7B6FF10BD10B5044606212046FFF767
:101F7000B3FF10BD10B5044608212046FFF7ACFFA3
:101F800010BD10B504460A212046FFF7A1FF10BD81
:101F900010B504460B212046FFF79AFF10BD10B57F
:101FA00004460C212046FFF793FF40B210BD10B548
:101FB00004460D212046FFF78BFF40B210BD10B53F
:101FC00004460E212046FFF783FF40B210BD10B536
:101FD00004460F212046FFF77BFF40B210BD10B52D
:101FE000044610212046FFF773FF40B210BD70B5C4
:101FF00005460C462846FFF782FF204470BD2DE9B8
:10200000F05F05462C462846FFF772FF0746284634
:10201000FFF775FF80464FF0FF0B2846FFF7B1FF33
:1020200081462846FFF7B4FF8246012F01D14FF0C9
:102030000F0B11344E4600BF2078FF2801D1641CDD
:1020400004E0A07800EA0B0004444444564500D163
:1020500002E0701CC6B2EFE700BF601BBDE8F09F56
:1020600010B50446A068FFF759FF10BD10B504462F
:10207000A068FFF75AFF10BD10B50446A068FFF72F
:102080005BFF10BD10B50446A068FFF75DFF10BDF3
:1020900010B50446A068FFF75FFF10BD70B5044699
:1020A0000E46A068FFF724FF10B101280FD10FE002
:1020B0003078E077707884F82000F07840B22077AC
:1020C000307940B26077707940B2A07715E000BFF8
:1020D000357805F00F00A077A07F801E40B2A07772
:1020E0002D116577757805F00F0084F820002D110B
:1020F000E577B5782D11257700BF00BF70BD0021B1
:102100000177C17780F820104177817770472DE9FA
:10211000FC5F05460F46AC68A868FFF7E9FE8346FA
:10212000A868FFF7ECFE0190FF200090BBF1010FC3
:1021300001D10F200090A868FFF723FF8246A8680E
:10214000FFF726FF8146A868FFF714FF0646612FB8
:1021500005DB002E03DD34444FF0610A0CE0A86873
:10216000FFF701FF0646412F05DB002E03DD344457
:102170004FF0410A00E011344F4505DD2846FFF7D6
:10218000BEFF0020BDE8FC9FD046C8451CDC00BF58
:102190002078FF2801D1641C0DE0B84505D1214607
:1021A0002846FFF77BFF2046ECE7A078009908401F
:1021B000044401980444C84500D104E008F101003A
:1021C00000F0FF08E4E700BF2846FFF798FF002073
:1021D000D8E770B504460D4629462046FFF797FF1D
:1021E00008B1012070BD0020FCE770B504460D4623
:1021F00029462046FFF78BFF08B9002070BD94F9EF
:102200001C00FBE72DE9FF4F83B0044689461646C4
:1022100020460699FFF77BFF0090009818B9002030
:1022200007B0BDE8F08FA0680099FFF7E0FE824696
:10223000E57F94F82070607F484400F0FF09A07F9C
:10224000301AC6B2701EC6B2F01B401CC2B22B467A
:10225000494620460097FFF701FD10B994F91C008C
:10226000DEE7E81DC5B22846E91705EB5171CD1030
:10227000B046A8EB070000F0FF0808F1010000F0ED
:10228000FF084FF0000B22E0CDF8049000200290F0
:1022900012E09AF80000002342460090204601997F
:1022A00000F037FF0AF1010A01980830C0B201902E
:1022B0000298401CC0B202900298A842E9DB08F1E3
:1022C000010000F0FF080BF1010000F0FF0BBB451F
:1022D000DADB94F91C00A3E72DE9F04104460E4631
:1022E00015461F462046616A88472844C5B23B46CA
:1022F0002A4631462046FFF785FFBDE8F0812DE9EB
:10230000FF4F83B004460E46914620460699FFF7DC
:10231000FEFE0090009818B9002007B0BDE8F08FCD
:10232000A0680099FFF763FE8246E57F94F820706D
:10233000A07F3044C6B2701CC6B2607F484400F033
:10234000FF093B464A46314620460095FFF786FC8A
:1023500010B994F91C00E0E7E81DC5B22846E9175A
:1023600005EB5171CD10B04608EB070000F0FF08F7
:10237000A8F1010000F0FF084FF0000B22E0CDF8BB
:1023800004900020029012E09AF8000001230090CF
:1023900041462046019A00F0BCFE0AF1010A01986C
:1023A0000830C0B201900298401CC0B2029002985E
:1023B000A842E9DBA8F1010000F0FF080BF10100E1
:1023C00000F0FF0BBB45DADB94F91C00A5E72DE913
:1023D000F04104460D4616461F462046616A88476E
:1023E000281AC5B23B46324629462046FFF787FFEA
:1023F000BDE8F0812DE9FF4F83B004460F46164635
:1024000020460699FFF783FE0090009818B9002037
:1024100007B0BDE8F08FA0680099FFF7E8FD82469D
:10242000E57F94F82080607F381AC7B2A07F3044DF
:10243000C6B2701CC6B2681E381AC1B22B463246EC
:102440002046CDF80080FFF709FC10B994F91C0074
:10245000DEE7E81DC5B22846E91705EB5171CD103E
:10246000B14609EB080000F0FF09A9F1010000F0F6
:10247000FF094FF0000B21E001970020029012E0CD
:102480009AF8000002234A4600902046019900F085
:1024900040FE0AF1010A01980838C0B20190029882
:1024A000401CC0B202900298A842E9DBA9F10100E9
:1024B00000F0FF090BF1010000F0FF0BC345DBDB6F
:1024C00094F91C00A4E72DE9F04104460E46154698
:1024D0001F462046616A8847281AC5B23B462A46ED
:1024E00031462046FFF786FFBDE8F0812DE9FF4F1A
:1024F00083B004460E46904620460699FFF707FE35
:102500000090009818B9002007B0BDE8F08FA068CF
:102510000099FFF76CFD8246E57F94F82070A07F5C
:10252000301AC6B2701EC6B2607FA8EB000000F081
:10253000FF08681EA8EB0000C2B2781E301AC1B2B4
:102540003B4620460095FFF789FB10B994F91C0023
:10255000DAE7E81DC5B22846E91705EB5171CD1041
:10256000B146A9EB070000F0FF0909F1010000F0F6
:10257000FF094FF0000B22E0CDF80480002002900C
:1025800012E09AF800000323009049462046019A81
:1025900000F0BFFD0AF1010A01980838C0B20190AD
:1025A0000298401CC0B202900298A842E9DB09F1EF
:1025B000010000F0FF090BF1010000F0FF0BBB452B
:1025C000DADB94F91C009FE72DE9F04104460D4643
:1025D00016461F462046616A88472844C5B23B46D6
:1025E000324629462046FFF781FFBDE8F0812DE9FC
:1025F000F04706460F4690461C464FF0000930460D
:10260000716A8847404400F0FF080DE02378424695
:1026100039463046FFF7F6FD05467819C7B209EB93
:10262000050000F0FF09641C20780028EED1484620
:10263000BDE8F0872DE9F04706460F4690461C4658
:102640004FF000093046716A8847381AC7B20FE068
:102650002378424639463046FFF751FE054608EBDF
:10266000050000F0FF0809EB050000F0FF09641CFD
:1026700020780028ECD14846BDE8F0872DE9F047E6
:1026800006460F4690461C464FF000093046716AD8
:102690008847A8EB000000F0FF080DE023784246D1
:1026A00039463046FFF7A6FE0546781BC7B209EB50
:1026B000050000F0FF09641C20780028EED1484690
:1026C000BDE8F0872DE9F04706460F4690461C46C8
:1026D0004FF000093046716A88473844C7B20FE0AE
:1026E0002378424639463046FFF700FF0546A8EBFF
:1026F000050000F0FF0809EB050000F0FF09641C6D
:1027000020780028ECD14846BDE8F0872DE9F0415B
:1027100005460E4617461C46DDF8188034B1012CDC
:102720000CD0022C11D0032C1DD115E043463A46A3
:1027300031462846FFF75BFFBDE8F08143463A4645
:1027400031462846FFF776FFF6E743463A463146DC
:102750002846FFF793FFEFE743463A4631462846BF
:10276000FFF7B0FFE8E70020E6E72DE9F04707466E
:10277000884691461D464FF0000A3846796A8847D8
:10278000484400F0FF0900BF2E7806B910E0334638
:102790004A4641463846FFF735FD044608EB04003B
:1027A00000F0FF080AEB040000F0FF0A6D1CEBE7E5
:1027B00000BF5046BDE8F0872DE9F04706460F46BA
:1027C00090461C464FF000093046716A8847381A17
:1027D000C7B20FE02378424639463046FFF7F7FD8F
:1027E000054608EB050000F0FF0809EB050000F0C6
:1027F000FF09641C20780028ECD14846BDE8F0872A
:102800002DE9F04706460F4690461C464FF000095A
:102810003046716A8847A8EB000000F0FF080DE021
:102820002378424639463046FFF74DFE0546781B71
:10283000C7B209EB050000F0FF09641C20780028EE
:10284000EED14846BDE8F0872DE9F04706460F4631
:1028500090461C464FF000093046716A884738445C
:10286000C7B20FE02378424639463046FFF7ACFE48
:102870000546A8EB050000F0FF0809EB050000F095
:10288000FF09641C20780028ECD14846BDE8F08799
:102890002DE9F84306460C4615461F46DDF8208014
:1028A0003046FFF7E9FB201AC4B23046FFF7EAFBD7
:1028B0002844C5B23B462A4621463046CDF8008022
:1028C000FFF724FFBDE8F8832DE9F04106460C46EA
:1028D00015469846069F3046FFF7CEFB201AC4B235
:1028E0003046FFF7CFFB2844C5B23B462A46214677
:1028F0003046FFF787FC0020BDE8F08170B5044644
:10290000A06800B970BD94F8280058B9A068FFF716
:1029100023FB40B284F82900A068FFF740FB84F84D
:102920002A0018E094F8280001280AD1A068FFF7CF
:102930004EFB84F82900A068FFF751FB84F82A00B9
:1029400009E0A068FFF733FB84F82900A068FFF7CF
:1029500036FB84F82A0014F9290F94F90110401A63
:1029600085B2A078A4F12904402804D0EDB294F8EF
:102970002B004543AD1184F82C5000BFC2E710B5C1
:102980000446002084F828002046FFF7B7FF10BD5A
:1029900010B50446012084F828002046FFF7AEFF5A
:1029A00010BD10B50446022084F828002046FFF729
:1029B000A5FF10BD70B504460D4684F82B50204687
:1029C000FFF79CFF70BD014600207047AFF2090180
:1029D00041627047014691F82A007047AFF20B013F
:1029E00041627047014691F82900421CD0B27047FD
:1029F000AFF20F0141627047024612F9291F507869
:102A0000081A41B2084601EBD07359105078A2F170
:102A10002902084441B2C8B27047AFF223014162B3
:102A200070470146087870470146087870472DE9DD
:102A3000F04104468846164600254046B047074602
:102A400017B92846BDE8F08139462046FFF75FFBFD
:102A5000607F4042C5B200BF08F101084046B04760
:102A600000B90AE0207F2844C5B24046B047074677
:102A700039462046FFF74BFBEEE700BF202F06D07C
:102A8000E07F2844C5B2607F2844C5B202E0207FC1
:102A90002844C5B22846D5E770B504460D46AFF2C6
:102AA0007D0229462046FFF7C2FF70BD70B504467F
:102AB0000D46AFF28B0229462046FFF7B8FF70BDE6
:102AC00070B504460D4629782046FFF720FB94F99F
:102AD0001D0070BD70B504460D4629782046FFF7ED
:102AE00016FB94F91D0070BD2DE9F04106460C4619
:102AF000002700BF257805B908E029463046FFF7D2
:102B000006FB307F3844C7B2641CF3E700BF384689
:102B1000BDE8F0812DE9F04106460C46002700BFD4
:102B2000257805B908E029463046FFF7F0FA307FEE
:102B30003844C7B2641CF3E700BF3846BDE8F081F3
:102B40002DE9F04105460E461446002020713078EC
:102B500030B9002020706070A070E070BDE8F08196
:102B60007F2020708020607031782846FFF7CFFAF0
:102B7000687F40422071687FA070A87FE07000BF2E
:102B800095F91E7094F90000B84200DD277095F8A1
:102B90002000384447B294F90100B84200DA677067
:102BA000761C307800B908E02079297F084420712C
:102BB00031782846FFF7ABFAE2E700BF2079E97FDA
:102BC000084420712079697F0844207100BFC5E75F
:102BD00070B504460D461646324629462046FFF794
:102BE000AFFF70BD704770472DE9F0470746884634
:102BF00014461D46DDE9089A0A9E98F800103846EA
:102C0000FFF785FA2878797F0844287020798AF8B8
:102C1000000099F800006178401A89F80000607897
:102C2000307030782178401A3070BDE8F0872DE997
:102C3000F04385B081460C4615461E46DDE90C780A
:102C4000207830B90020387088F8000005B0BDE861
:102C5000F08303AA21464846FFF772FF2B4603AADA
:102C6000214648468DE8C001FFF7BEFF00BFEDE7F3
:102C70002DE9F04786B005460E4617469846DDE931
:102C80000E9A307838B9002089F800008AF80000E0
:102C900006B0BDE8F087A868FFF75EF9044604AA0D
:102CA00031462846FFF74CFF9DF91100A04202DA99
:102CB00060B28DF811003B4604AA314628468DE8E3
:102CC0000007FFF791FF00BFE2E770B504460D462D
:102CD000A068A84206D0A5602046FFF70FFE204658
:102CE000FFF774FE70BD00002DE9F04105460C466B
:102CF00016461F463B46324621462846D4F800C0B9
:102D0000E047BDE8F08170B504460D460220216C15
:102D1000884700230A2229462046FFF7E5FF06469A
:102D20000320216C88470020216C8847304670BD05
:102D300070B504460D460220216C88470120216CA5
:102D400088470023142229462046FFF7CDFF04F1CF
:102D50004403172229462046FFF7C6FF0020216CB6
:102D6000884770BD70B504460E460220216C884726
:102D70000120216C88470023152231462046FFF7A9
:102D8000B3FF054635B104F144031722314620460E
:102D9000FFF7AAFF0020216C8847284670BD37B591
:102DA00004460D4602AB0F2229462046FFF79CFF42
:102DB0003EBD2DE9F0410546884617461E4605F101
:102DC0002D04277066702346322241462846FFF7BD
:102DD0008BFFBDE8F0812DE9F04705468846164691
:102DE0001F46DDE9089A05F12D042670677084F806
:102DF000039084F802A023463B2241462846FFF771
:102E000073FFBDE8F08738B504460D466B46462291
:102E100029462046FFF768FF9DF8000038BD38B509
:102E200004460D466B46472229462046FFF75CFFC5
:102E30009DF8000038BD70B504460D4600234822B9
:102E400029462046FFF750FF70BD10B504462046C6
:102E50006168FFF7D8FF207020466168FFF7DFFF49
:102E6000607020466168FFF7E6FFE07404F14403F8
:102E7000172220466168FFF737FF10BD3122115439
:102E8000704770B504460020A060E06060740120C7
:102E900020742220A0740020A061002505E0FF21FD
:102EA00004F132004155681CC5B20E2DF7DB01213B
:102EB0002046FFF7E3FF2046FFF788FD012004F8D6
:102EC000280F00206070A0704020E070002020716A
:102ED000BA48A061A4F1280470BD10B5044620468C
:102EE0006168FFF710FF08B9002010BD2046FFF70A
:102EF000ACFF0120F9E770B504460D462046FFF708
:102F0000C0FF65602046FFF7E8FF70BD2DE9F04780
:102F100004460D4616461F46DDE9099ADDF8208075
:102F20002046FFF7AEFF656036200655372007556F
:102F300084F8348084F8339084F832A02046FFF778
:102F4000CCFFBDE8F0872DE9F04104460D4616465A
:102F50001F46DDF818802046FFF793FF6560342098
:102F600006553320075584F832802046FFF7B5FF19
:102F7000BDE8F08170B504460D4616462046FFF7C1
:102F800080FF65603D2006552046FFF7A6FF70BD17
:102F90002DE9F04704460D4616461F46DDE9099A1D
:102FA000DDF820802046FFF76CFF6560362006556F
:102FB0003420075584F8338084F83F9084F832A099
:102FC0002046FFF78AFFBDE8F0872DE9F05F044651
:102FD0000D4616461F46DDE90CABDDE90A892046A1
:102FE000FFF74FFF6560372006553820075584F8F6
:102FF000398084F83A9084F83BA084F83CB03D21B5
:103000000E9808553E210F980855362110980855FE
:1030100034211198085535211298085533211398F9
:1030200008553F2114980855159884F83200204619
:10303000FFF753FFBDE8F09F2DE9F05F04460D4612
:1030400016461F46DDE90CABDDE90A892046FFF78D
:1030500018FF6560372006553820075584F83980F9
:1030600084F83A9084F83BA084F83CB03D210E9857
:1030700008553E210F9808553421109808553321E2
:10308000119808553F211298085536211398085574
:10309000149884F832002046FFF71FFFBDE8F09F28
:1030A00010B5044620466168FFF742FE10BD10B51A
:1030B0000446A06910B12046A1698847204661688E
:1030C000FFF750FE10BD70B504460D462A46204657
:1030D0006168FFF764FE70BD10B50446002310223E
:1030E00020466168FFF700FE10BD10B504460023BE
:1030F000112220466168FFF7F7FD10BD70B5044648
:103100000D46164633462A4620466168FFF751FEB3
:1031100070BD2DE9FC4104460D4616461F46DDF8FC
:103120002080CDE9007833462A4620466168FFF7C3
:1031300052FEBDE8FC8101463120405C70470146EB
:10314000CA7C182A01D1FF207047C87C022801D10F
:103150000320F9E70120F7E710B503461846FFF70B
:10316000EEFF044621461846FFF788FE10BD0146D3
:103170000020704710B503461846FFF7F8FF0446D5
:1031800021461846FFF77AFE10BD0146CA7C182A70
:1031900001D16D207047C87C022801D10120F9E7D8
:1031A0000120F7E710B503461846FFF7EEFF044687
:1031B00021461846FFF762FE10BD00008139000865
:1031C000002181700178C170C178491EC170002151
:1031D0000171704710B503460C461C705A700020F0
:1031E00018711846FFF7ECFF10BD014688780B7880
:1031F0001844887088784B78984201DB002070472B
:103200000879401C0871CA7808781044C2B248781E
:10321000904202DC4A78501EC2B2CA700120EEE72A
:103220000146886802464B7902EB830200BF002307
:1032300000F8013B9042FAD1704770B504460E4643
:103240001546A66065712046FFF7EAFF70BDF0B530
:10325000044615461E46A068A778EF1BFDB26379A9
:10326000DB106B431844802201F007073A41C91074
:1032700008441EB107781743077004E082F0FF028C
:10328000077817400770F0BD30B505460C466078EA
:10329000A978884200DA30BD6078E978884200DD9C
:1032A000F9E720786979884200DBF4E723796278CE
:1032B00021782846FFF7CBFF00BFECE770B5064644
:1032C0000C46A57800BF15F0800F03D0214630468C
:1032D000FFF7DAFFE07830B1012808D002280AD0E1
:1032E000032810D10BE02078401C20700BE06078A0
:1032F000401C607007E02078401E207003E060787A
:10330000401E607000BF00BF6806050E002DDAD1B8
:1033100070BD2DE9F04180460C46A57800260027B7
:10332000E07830B1012806D0022806D003280AD15F
:1033300006E0761C07E07F1C05E0701EC6B202E0C6
:10334000781EC7B200BF00BF00BF15F0800F03D0CA
:1033500021464046FFF798FF20783044207060787F
:10336000384460706806050E002DEED1BDE8F0818E
:103370002DE9F04180460E4617461C4675683B2FE6
:103380001CD00EDC152F31D006DC0A2F25D00B2FD8
:1033900024D0142F44D122E0172F32D0322F3FD126
:1033A00016E0462F32D004DC3C2F35D03D2F37D1EC
:1033B00033E0472F2DD0482F32D12FE02146284629
:1033C00000F09BF818B121462846FFF7A2FF27E03E
:1033D00021462846FFF758FF22E021E020E028465A
:1033E000FFF71EFF2846FFF7EBFE19E02846FFF720
:1033F000FCFE10B90020BDE8F0812846FFF710FF61
:103400000EE02146284600F06CF809E0687920704B
:1034100006E06878207003E002E001E00120EAE7BE
:1034200000BF0120E7E70146886802464B791A444D
:1034300000BF002300F8013B9042FAD17047F0B57D
:1034400003460C46D878A04201DB012000E00020B2
:1034500001469878904201DC012000E000200546FA
:10346000944201DD012000E0002006460F4629407D
:1034700035403E40294331430846F0BD30B5034650
:103480005879884201DA012000E00020044658798A
:10349000904201DA012000E00020054614B10DB190
:1034A000002030BD0120FCE770B506460C4665786B
:1034B000E0782844C5B2681EC5B261782A46304615
:1034C000FFF7BDFF08B9002070BD2578A07828441B
:1034D000C5B2681EC5B221782A463046FFF7CEFF36
:1034E000F2E700220A7082784A7042798A708A78FC
:1034F000521E8A70C278CA707047F0B507460C46F3
:1035000065782E46E07830B1012805D0022807D032
:1035100003280AD105E008E006F10800C6B204E07D
:1035200003E0A5F10800C5B200BF00BF324629463E
:103530003846FFF784FFF0BD70B504460D461646C9
:10354000627931462846A368FEF732FC70BD2DE94A
:10355000F84307460E4690461C46FF250CE0002324
:103560004246314638460095FFF7D3FDA4F10800E6
:10357000C4B206F10800C6B2082CF0DA7CB184F0BF
:103580000704601CC4B204F0070005FA00F0C5B2DD
:1035900000234246314638460095FFF7BAFDBDE8A4
:1035A000F8832DE9F8430746884616461C46FF2552
:1035B0000CE001233246414638460095FFF7A9FD4D
:1035C000A4F10800C4B206F10800C6B2082CF0DA73
:1035D0007CB184F00704601CC4B204F0070005FA53
:1035E00000F0C5B201233246414638460095FFF748
:1035F00090FDBDE8F883F8B504460D4616461F4613
:1036000001203B463246294600902046FEF726FB25
:1036100000B9F8BD3B46324629462046FFF797FFE2
:1036200000BFF6E7F8B505460E4617461C460123CF
:103630003A46314628460094FEF710FB00B9F8BD23
:1036400023463A4631462846FFF7ABFF00BFF6E770
:103650002DE9F84380460C4615461F46089EA146B4
:103660003B462A46214640460096FEF7F7FA08B93F
:10367000BDE8F8833B462A4621464046FFF767FFF0
:1036800033462A4621464046FFF78BFFE019C4B275
:10369000601EC4B233462A4621464046FFF781FFEA
:1036A000A819C5B2681EC5B23B462A4649464046DF
:1036B000FFF74DFF00BFDBE72DE9F04106460F465F
:1036C00014469846069D00BF43462246394630467A
:1036D000FFF73DFF601CC4B2681EC5B2002DF3D1D8
:1036E000BDE8F0812DE9F84305460E461746984699
:1036F000089C43463A46314628460094FEF7AEFA07
:1037000008B9BDE8F88343463A4631462846009456
:10371000FFF7D2FF00BFF4E72DE9FF4F83B00D465E
:1037200016461F46DDE910843B4632462946CDF851
:1037300000800398FEF792FA10B907B0BDE8F08F49
:10374000AB460BEB040000F0FF0B0296029E301913
:10375000C0B20290AA460AEB070000F0FF0AAAEBEB
:10376000040000F0FF0AAAF1010000F0FF0AB146D0
:1037700009EB080000F0FF09A9EB040000F0FF09C5
:10378000A9F1010000F0FF090220234600905946EC
:10379000DDE9022000F04AF901202346009051465D
:1037A000DDE9022000F042F9042023464A4659464A
:1037B0000090039800F03AF9082023464A46514603
:1037C0000090039800F032F9B946A9EB040000F02C
:1037D000FF09A9EB040000F0FF09A9F1020000F0C5
:1037E000FF09C246AAEB040000F0FF0AAAEB04009E
:1037F00000F0FF0AAAF1020000F0FF0A0BF101003D
:1038000000F0FF0B0298401CC0B20290A8F101002A
:1038100000F0FF08781EC7B24B463246594603985F
:10382000FFF795FE06EB0800C2B24B4659460398D7
:10383000FFF78DFE53462946DDE90220FFF7B1FE72
:10384000E819C1B25346DDE90220FFF7AAFE00BF26
:1038500073E72DE9FF4F85B00D4616469846DDE922
:10386000127443463246294600970598FEF7F6F94A
:1038700010B909B0BDE8F08F0495049D2819C0B2B5
:1038800004900396039E3019C0B20390AA460AEB37
:10389000080000F0FF0AAAEB040000F0FF0AAAF1FA
:1038A000010000F0FF0AB14609EB070000F0FF0934
:1038B000A9EB040000F0FF09A9F1010000F0FF09E5
:1038C000022023460090DDE90321059800F06DF900
:1038D0000120234600905146039A059800F065F9AF
:1038E000042023464A460090DDE9041000F05DF90B
:1038F000082023464A4651460090059800F055F9A5
:10390000C346ABEB040000F0FF0BABEB040000F090
:10391000FF0BABF1020000F0FF0B0297029F381B78
:10392000C0B202900298001BC0B202900298801EA2
:10393000C0B202900498401CC0B204900398401C8E
:10394000C0B20390781EC7B2601CC0B25B4632465C
:103950000090DDE90410FFF7AFFE601CC0B25B46CB
:103960004A460090DDE90410FFF7A6FE02984346A0
:1039700000902946039A0598FFF79EFE00BF78E75E
:10398000704770B505460C462C640320A04770BDF7
:103990002DE9F04781460C4615461E46DDE90878BC
:1039A00018F0010F0DD0781BC2B23019C1B24846D1
:1039B000FFF7A4FB381BC2B27019C1B24846FFF72B
:1039C0009DFB18F0020F0DD0781BC2B2301BC1B2A4
:1039D0004846FFF793FB381BC2B2701BC1B2484682
:1039E000FFF78CFB18F0080F0DD07819C2B2301910
:1039F000C1B24846FFF782FB3819C2B27019C1B292
:103A00004846FFF77BFB18F0040F0DD07819C2B2BF
:103A1000301BC1B24846FFF771FB3819C2B2701BA8
:103A2000C1B24846FFF76AFBBDE8F0872DE9FF4FBA
:103A300083B08A4617461C46DDF840B00125281B96
:103A400045B2012002900026301B46B2700046B2FB
:103A50004FF00008A14653464A464146CDE9007B57
:103A60000398FFF795FF1CE0002D07DBA9F101008B
:103A700000F0FF09B01C46B2A81945B208F10100D8
:103A800000F0FF080298801C40B20290029828447F
:103A900045B253464A464146CDE9007B0398FFF7BD
:103AA00077FFC845E0DB07B0BDE8F08F2DE9F84FA0
:103AB00081460F4690461D46DDF828A02C46601C26
:103AC000C4B226467006060EA8EB0400C2B2381B2C
:103AD000C1B2334648460096FEF7C0F808B9BDE8C3
:103AE000F88F2B46424639464846CDF800A0FFF7EE
:103AF0009DFF00BFF3E72DE9F04781460C461546D0
:103B00001E46DDE9087818F0010F11D0681CC3B219
:103B1000781BC2B23019C1B24846FFF783FD601C62
:103B2000C3B2381BC2B27019C1B24846FFF77AFD62
:103B300018F0020F11D0681CC3B2781BC2B2301B40
:103B4000C1B24846FFF76EFD601CC3B2381BC2B25B
:103B5000701BC1B24846FFF765FD18F0080F0FD083
:103B6000681CC3B23019C1B23A464846FFF75AFD45
:103B7000601CC3B27019C1B23A464846FFF752FD05
:103B800018F0040F0FD0681CC3B2301BC1B23A4604
:103B90004846FFF747FD601CC3B2701BC1B23A46EE
:103BA0004846FFF73FFDBDE8F0872DE9FF4F83B0A2
:103BB0008A4617461C46DDF840B00125281B45B251
:103BC000012002900026301B46B2700046B24FF032
:103BD0000008A14653464A464146CDE9007B03987A
:103BE000FFF789FF1CE0002D07DBA9F1010000F0C1
:103BF000FF09B01C46B2A81945B208F1010000F057
:103C0000FF080298801C40B202900298284445B2F6
:103C100053464A464146CDE9007B0398FFF76BFFC8
:103C2000C845E0DB07B0BDE8F08F2DE9F84F8146CD
:103C30000F4690461D46DDF828A02C46601CC4B2F5
:103C400026467006060EA8EB0400C2B2381BC1B2AD
:103C5000334648460096FEF701F808B9BDE8F88FEC
:103C60002B46424639464846CDF800A0FFF79DFF57
:103C700000BFF3E72DE9F84307460D4690461C4682
:103C8000089E0DE0307800234246294600903846D1
:103C9000FFF73FFA761C601EC4B205F10800C5B2FA
:103CA000002CEFDCBDE8F8832DE9F8438046894617
:103CB00016461C46DDE90857E006030E3246494623
:103CC00040460095FDF7CAFF08B9BDE8F8830BE050
:103CD00023463246494640460097FFF7CBFF27442C
:103CE000701CC6B2681EC5B2002DF1DC00BFECE747
:103CF0002DE9F84307460D4690461C46089E0DE008
:103D0000307800234246294600903846FFF701FAF2
:103D1000761C601EC4B205F10800C5B2002CEFDCB1
:103D2000BDE8F8832DE9F8438046894616461C46CF
:103D3000DDE90857E006030E324649464046009545
:103D4000FDF78CFF08B9BDE8F8830BE02346324647
:103D5000494640460097FFF7CBFF2744701CC6B288
:103D6000681EC5B2002DF1DC00BFECE72DE9F84379
:103D700080460D4691461C46089EE81DC5B20EE0E1
:103D8000307802234A46294600904046FFF7C1F9A1
:103D9000761CA4F10800C4B205F10800C5B2082CD5
:103DA000EEDA002C12DD3778E81FC5B200BF17F03D
:103DB000010F04D04A4629464046FFF79FF9681C88
:103DC000C5B2601EC4B27F10002CF0DCBDE8F883E1
:103DD0002DE9F84F81468A4617461C46DDE90A5808
:103DE0002646F01DC6B2F61023463A4651464846CE
:103DF0000095FDF733FF08B9BDE8F88F0CE02346C6
:103E00003A4651464846CDF80080FFF7AFFFB04430
:103E1000781CC7B2681EC5B2002DF0DC00BFEBE70E
:103E20002DE9F84380460D4691461C46089EE81D44
:103E3000C5B20EE0307802234A462946009040463B
:103E4000FFF767F9761CA4F10800C4B205F1080079
:103E5000C5B2082CEEDA002C12DD3778E81FC5B2A7
:103E600000BF17F0010F04D04A4629464046FFF72D
:103E700045F9681CC5B2601EC4B27F10002CF0DC8E
:103E8000BDE8F8832DE9F84F81468A4617461C465F
:103E9000DDE90A582646F01DC6B2F61023463A461A
:103EA000514648460095FDF7D9FE08B9BDE8F88FA0
:103EB0000CE023463A4651464846CDF80080FFF7CD
:103EC000AFFFB044781CC7B2681EC5B2002DF0DC4D
:103ED00000BFEBE770B50446002513E00022222165
:103EE000914801F0F3F904F0800213218E4801F0AB
:103EF000EDF96006040E012222218B4801F0E6F95B
:103F0000681CC5B2082DE9DB70BD002000E0401C34
:103F10000C28FCDB704710B50246002308E00024A3
:103F200002E0FFF7F2FF641CB4F57A7FF9DB5B1C5B
:103F30009342F4DB10BD00B5002202E0FFF7E5FF7D
:103F4000521C0A2AFADB00BD10B5044604F0F0004A
:103F5000FFF7C0FF2107080EFFF7BCFFFFF7EBFFDD
:103F600010BD70B504460D4600260CE0217801F026
:103F7000F000FFF7AFFF21780907080EFFF7AAFF4F
:103F8000641C701CC6B2AE42F0DBFFF7D4FF70BDFC
:103F90002DE9F05F81460F4690469A46B8F10A0F28
:103FA00006D0B8F10B0F71D0B8F1150F6CD16EE0DF
:103FB00003215E4801F05DFC5D48466826F0E0663E
:103FC00046F00076466000222B21574801F0D5F8D4
:103FD00000222B21544801F079F900221321524884
:103FE00001F0CBF8002213214F4801F06FF90022B5
:103FF00022214D4801F0C1F8012222214A4801F056
:1040000065F901222B21484801F060F9FFF793FF81
:104010005A20FFF780FFF820FFF75CFFFFF78BFFC8
:104020000820FFF791FF0120FFF78EFF0A20FFF71E
:1040300072FF3E20FFF788FF00241BE044F0800061
:10404000FFF782FF8020FFF77FFFFA20FFF742FF94
:10405000FFF771FF002504E00020FFF775FF681CE3
:10406000C5B2202DF8DBF820FFF734FFFFF763FF20
:10407000601CC4B2202CE1DB0C20FFF765FF00229E
:104080002B21294801F022F93FE0FFE73DE0D7F876
:1040900004B09BF80240DBF8086001222B21224883
:1040A00001F014F9FFF747FF002526E0F820FFF79D
:1040B00011FFFFF740FF202C07DA44F08000FFF7E4
:1040C00043FF8020FFF740FF09E0A4F12001C9B2BF
:1040D00041F08000FFF738FF8820FFF735FFFA2016
:1040E000FFF7F8FEFFF727FF10213046FFF739FFF3
:1040F0001036601CC4B2681CC5B2202DD6DB00226D
:104100002B21094801F0E2F800BF00BF53464246A8
:1041100039464846FFF72CF9BDE8F09F10B500215D
:10412000044814F029FC10BD8C000020450100203B
:1041300000000140D806002010B502F083FF0120E6
:1041400010BD4FF480104B4908604A481038006891
:1041500080B248491039086008460068464908435B
:1041600044491039086000204449088088800120B3
:10417000704710B50446204602F091FF3F48808901
:10418000C0B210BD10B502460B4600210BE0505CDA
:104190003A4CA08100BF3948008910F0020FFAD0D4
:1041A00036488089491C9942F1D301E0334880891F
:1041B0003248008910F0810FF8D1012010BD10B5F0
:1041C00002460B4600210CE0FF202C4CA08100BFD2
:1041D0002A48008910F0010FFAD0284880895054ED
:1041E000491C9942F0D3012010BD024648F6A04078
:1041F000824201D3002124E044F25060824201D384
:1042000001211EE042F22830824201D3022118E04F
:1042100041F29410824201D3032112E040F6CA0019
:10422000824201D304210CE040F26540824201D376
:10423000052106E040F23220824201D3062100E04F
:1042400007210E48008820F0380040EAC1000B4BDF
:10425000188001207047014619B11020054A1060EE
:1042600003E01020034A121D106001207047012056
:104270007047000010080140000044440030014035
:10428000704770B504460D4640A1204612F092F9E1
:1042900010B948F2010070BD3EA1204612F08AF923
:1042A00010B948F20200F6E73CA1204612F082F96C
:1042B00010B948F20300EEE72946204614F07CFED0
:1042C000E9E710B50446B4F5004F01DD002010BD4C
:1042D000204614F003FEFAE72DE9F04104460D46AE
:1042E00016461F46B4F5004F03DD4FF0FF30BDE822
:1042F000F08132462946204614F096FFF7E72DE973
:10430000F04104460D4616461F46B4F5004F03DD46
:104310004FF0FF30BDE8F08132462946204614F0C8
:104320002FFFF7E70146B1F5004F01DD012070478F
:104330000020FCE770B504460D46B4F5004F02DDE1
:104340004FF0FF3070BD2946204614F049FFF9E7D1
:1043500010B50446B4F5004F02DD4FF0FF3010BD3C
:10436000204614F0E5FDFAE710B50446B4F5004F19
:1043700001DD002010BD204614F0FEFDFAE70346E3
:1043800001207047704700BFFEE7000053544449C6
:104390004E0000005354444F5554000053544445BC
:1043A00052520000234918F09AB8224918F0FCB97B
:1043B000204B18F0CDB91F4B18F002BA1D4918F068
:1043C00097B91C4A18F079B81B480021194AC160F6
:1043D000A0F5C06181601949416019499160A0F25E
:1043E0001C61A0F500724A604161402101821548BC
:1043F0000068704700207047002070470020704719
:104400000020704700207047002070470020704750
:104410000020704700207047002070470020704740
:104420007047002070470020704700207047002030
:1044300070470000CC180020481700207CFB0108C2
:1044400038FB0108AC040020DD48006840F00100A2
:10445000DB49086008464068DA490840D8494860A6
:1044600008460068D8490840D549086008460068F1
:1044700020F4802008600846406820F4FE00486070
:104480004FF41F0088607047CD49096821F48031DE
:10449000CB4A11601146096821F480211160B0F502
:1044A000803F03D0B0F5802F0ED106E0C4490968E3
:1044B00041F48031C24A116007E0C149096841F402
:1044C000A021BF4A116000E000BF00BF704710B5D7
:1044D00001460022002300204A11012A02D1B84CD3
:1044E000236806E0022A02D1B54C236A01E0B44CED
:1044F000636A01F01F02012494401C4201D0012094
:1045000000E0002010BD38B50020009000240025F8
:1045100000BF3120FFF7DBFF05460098401C0090EC
:104520000098B0F5A06F01D0002DF2D03120FFF738
:10453000CEFF08B1012400E00024204638BD01462A
:1045400000209F4A106820F0F80040EAC100106087
:1045500070479E490860704702460020984B586893
:1045600020F47C1042EA01031843954B58607047D1
:1045700096490866704701460020914A506820F02D
:1045800003000843506070478D48406800F00C00FD
:104590007047014600208A4A506820F0F000084326
:1045A0005060704701460020854A506820F4E06062
:1045B00008435060704701460020814A506820F44B
:1045C000605040EAC1005060704729B17C4A527A7D
:1045D00002437B4B5A7204E0794A527A8243784B09
:1045E0005A7270477A490860704701460020744A41
:1045F000506820F440400843506070470021754ADD
:1046000011706F4A82F82010012802D0042808D1C6
:1046100003E001216F4A117004E005216D4A117019
:1046200000E000BF00BF70476B49086070476449F5
:10463000096A0143624A1162704767494439086058
:10464000704730B500210022002400235C4D6D68C6
:1046500005F00C0121B1042905D0082923D105E07A
:104660005E4D056022E05D4D05601FE0544D6D68B4
:1046700005F47012524D6D6805F48034022505EB87
:1046800092421CB9564D554305600BE04C4D6D6888
:1046900015F4003F03D0524D5543056002E04F4DE5
:1046A0005543056002E04D4D056000BF00BF444D1D
:1046B0006D6805F0F00109094A4D6B5C0568DD4045
:1046C00045603F4D6D6805F4E061090A454D6B5C3E
:1046D0004568DD4085603A4D6D6805F46051C90A52
:1046E000404D6B5C4568DD40C560354D6D6805F437
:1046F0004041890B3C4D6B5CC568B5FBF3F505612A
:1047000030BD29B12E4A526902432D4B5A6104E053
:104710002B4A526982432A4B5A61704729B1284A71
:1047200092690243264B9A6104E0254A92698243CA
:10473000234B9A61704729B1214AD2690243204B29
:10474000DA6104E01E4AD26982431D4BDA61704788
:1047500029B11B4AD2680243194BDA6004E0184AB7
:10476000D2688243164BDA60704729B1144A126945
:104770000243134B1A6104E0114A12698243104B41
:104780001A61704714494039086070470F49C8647E
:1047900070470B49C87170470948406A40F0807003
:1047A00007494862704701460020054A92680A425C
:1047B00001D0012000E00020704701498872704755
:1047C000001002400000FFF8FFFFF6FE000042422A
:1047D000D8004242201002408004424200127A0077
:1047E00000093D00480000205800002001684FF6F5
:1047F000FE72114001600021016041608160C16072
:104800008C49884208D18B490839496841F00F0129
:10481000884A083A51608AE086491431884208D1B2
:1048200084490839496841F0F001824A083A5160E8
:104830007DE080492831884208D17E49083949689D
:1048400041F470617B4A083A516070E079493C312B
:10485000884208D177490839496841F47041754A5E
:10486000083A516063E073495031884208D1714978
:104870000839496841F470216E4A083A516056E09F
:104880006C496431884208D16A490839496841F461
:104890007001684A083A516049E0664978318842B7
:1048A00008D164490839496841F07061614A083AA1
:1048B00051603CE06049884206D1011F096841F01F
:1048C0000F01021F116032E05B491431884208D1A8
:1048D0005949091F096841F0F001574A121F116038
:1048E00025E055492831884208D15349091F0968F4
:1048F00041F47061504A121F116018E04E493C317A
:10490000884208D14C49091F096841F470414A4A5C
:10491000121F11600BE048495031884207D14649C7
:10492000091F096841F47021434A121F1160704742
:1049300010B50022026847F6F0739A430C6A8B6840
:1049400023430C6923434C6923438C692343CC697B
:1049500023434C6A23438C6A23431A430260CB6887
:1049600043600B6883604B68C36010BD0021016029
:1049700041608160C160016141618161C161016229
:1049800041628162704721B1026842F00102026017
:1049900004E002684FF6FE731A40026070471AB1D5
:1049A00003680B43036002E003688B4303607047B6
:1049B000416070470146486880B270470146002058
:1049C000002211F0805F03D01B4B083B1A6802E005
:1049D000184B083B1A680A4201D0012000E0002071
:1049E000704710F0805F03D01349091F086002E090
:1049F000104908394860704701460020002211F034
:104A0000805F03D00C4B083B1A6802E0094B083B5F
:104A10001A680A4201D0012000E00020704710F01F
:104A2000805F03D00449091F086002E0014908398A
:104A300048607047080002400804024010B5044670
:104A4000FB48844209D101218803FFF781FE002140
:104A50004FF48040FFF77CFE32E0F648844209D1F3
:104A600001214804FFF781FE00214FF40030FFF7D9
:104A70007CFE25E0F048844209D101218804FFF73B
:104A800074FE00214FF48020FFF76FFE18E0EB4822
:104A9000844209D10121C804FFF767FE00214FF4C9
:104AA0000020FFF762FE0BE0E548844208D10121B7
:104AB0000805FFF75AFE00214FF48010FFF755FE5E
:104AC00010BD2DE9F04786B005460E460024A246EB
:104AD00000BFA1460027B08900B100BF2F462C8A35
:104AE0004CF6FF700440F08804432C82AC894EF6EB
:104AF000F3100440B08831890843718908430443A6
:104B0000AC81AC8A4FF6FF400440B0890443AC82CC
:104B100001A8FFF796FDC648874202D1DDF810A034
:104B200001E0DDF80CA0A88910F4004F08D00AEBD2
:104B3000CA0000EB0A1031684900B0FBF1F807E049
:104B40000AEBCA0000EB0A1031688900B0FBF1F8EB
:104B50006420B8FBF0F004012009642101FB1089F6
:104B6000A88910F4004F08D0322000EBC900B0FB38
:104B7000F1F000F00700044308E0322000EB0910D8
:104B80006421B0FBF1F000F00F0004432C8106B06B
:104B9000BDE8F0874FF41651016000218180C1808B
:104BA00001810C21418100218181704710B50246AD
:104BB0000020108A4FF2FF0318400B884C882343D3
:104BC0008C882343CC8823431843108210BD0021D6
:104BD000018041808180C180704721B1828942F487
:104BE0000052828104E082894DF6FF731A4082816F
:104BF0007047F0B503460024002600250020A1F5EB
:104C000010676A3F00D100BF1846C1F3421401F09B
:104C10001F06012707FA06F5012C01D10C3004E02C
:104C2000022C01D1103000E014301AB107682F4374
:104C3000076002E00768AF430760F0BD1AB1838ADE
:104C40000B43838202E0838A8B4383827047028A0C
:104C50004FF6F0731A400282028A0A4302827047BA
:104C600082894FF2FF731A40828182890A438281CE
:104C7000704721B1828942F00202828104E0828978
:104C80004FF6FD731A4082817047028A4FF6DF7338
:104C90001A400282028A0A430282704721B1028AC4
:104CA00042F48042028204E0028A4BF6FF731A400B
:104CB00002827047C1F308028280704701468888EB
:104CC000C0F308007047818941F00101818170477C
:104CD000028BD2B20283028B42EA01220283704726
:104CE000028B02F47F420283028B0A4302837047E5
:104CF00021B1828A42F02002828204E0828A4FF649
:104D0000DF731A408282704721B1828A42F010021A
:104D1000828204E0828A4FF6EF731A4082827047E3
:104D200021B1828A42F00802828204E0828A4FF630
:104D3000F7731A408282704721B1828942F400429F
:104D4000828103E08289C2F30E028281704721B121
:104D5000828A42F40062828204E0828A4FF2FF7308
:104D60001A4082827047828A4FF6FB731A40828211
:104D7000828A0A438282704721B1828A42F002020B
:104D8000828204E0828A4FF6FD731A408282704765
:104D900002460020B1F5007F00D100BF13880B420E
:104DA00001D0012000E00020704701F40072B2F54C
:104DB000007F00D100BFCA430280704770B5024631
:104DC0000024002300250020A1F510666A3E00D1D2
:104DD00000BFC1F3421501F01F03012606FA03F3D9
:104DE000012D02D19689334006E0022D02D1168AA8
:104DF000334001E0968A33400C12012606FA04F48F
:104E00001688344013B10CB1012000E0002070BDC1
:104E100010B500220023A1F510646A3C00D100BF48
:104E20000A1201249440A3B2DC43048010BD0000A8
:104E3000003801400044004000480040004C004061
:104E40000050004010B5002023E0C54A52F8203041
:104E5000243A32F810406832125C04FB0233C04A34
:104E60006632125C9918BE4A4432125C521CB1FB85
:104E7000F2F302FB1312D3B2B94A66321354113A59
:104E8000125C21FA02F2B64B243B23F81020421C9C
:104E9000D0B2B34A243A92F89B208242D5DCB04883
:104EA0002438D0F89C000068806840F48000AC4A48
:104EB000243AD2F89C20126890600720A94A5060DA
:104EC00010BD0246A84800EB0110837B02F1B1003F
:104ED000C05C32F81000704730B504460D4600BF84
:104EE000A04800680028FBD0FFF7ACFF9E4800EB0D
:104EF0000510817B04F1B100405C34F8100030BD36
:104F000070B506460023002400200CE0082804DACF
:104F100000EB400502FA05F52B4300EB400502FAD1
:104F200005F52C43401C0A28F0DB0D68EB600D688A
:104F30002C6170BD2DE9F04107460C46216801F156
:104F40000800032101F00CFD0546216801F108006D
:104F5000022101F005FD06460120286000BF2868F7
:104F60000028FCD10120306000BF30680028FCD14F
:104F7000BDE8F0812DE9F04107460C46C7F89C409A
:104F800007217A4800F075FC79487649086107F1F5
:104F9000240048610820C860002500BF00BF45F418
:104FA0002A6500BF00BF00BF45F0020500BF0846EC
:104FB00085600B216F4801F061FF4FF440420421EE
:104FC0006A4800F0D7FC2179684800F052FC20685C
:104FD000466846F48076206846602068866826F435
:104FE000602646F4602646F4801646F480762068F3
:104FF000866000BF2068806840F0010021688860FA
:1050000000BF21463846FFF795FF06222146384665
:10501000FFF776FFBDE8F0815249896841F0010150
:10502000504A9160D0F89C100968896841F4800169
:10503000D0F89C20126891607047F8B504460020B3
:1050400085E004F1A0031B5C03B17FE0464B03EB5A
:1050500001139F7B04F1B103D855434B03EB0113BC
:105060009E7B04F1A0031E54052A2BD2DFE802F038
:10507000030A121A2200012604F168031E54113398
:105080001E5426E0032604F168031E540226113341
:105090001E541EE0072604F168031E540326113334
:1050A0001E5416E00F2604F168031E540426113323
:1050B0001E540EE01F2604F168031E54052611330A
:1050C0001E5406E0012604F168031E5411331E54D9
:1050D00000BF00BF54F89C3F1B6803F13405062352
:1050E00090FBF3F3A5EB83052B680093062390FB5D
:1050F000F3F603FB160000EB80061F23B340009E6F
:105100009E430096184B03EB01139B7B00EB80063C
:10511000B340009E33430093009B2B6023681B68C1
:10512000DB6A0093009B23F07F630093009B43EABC
:1051300000530093009B26683668F362431C094EB7
:10514000F36004F8013CA4F19C0403E0401C112826
:10515000FFF677AFF8BD0248243800BF7047000063
:10516000FC180020000002409CFB010845010020C3
:105170004C2401403002002070472DE9F0410746E1
:105180000D4616464FF000088B4800EB05100068EE
:1051900001798A4800F06DFB2F2D01DBBDE8F0811D
:1051A0000B2E20D2DFE806F006080A0C0E111315AC
:1051B0000F171B00032417E0072415E00F2413E04A
:1051C0000B2411E000BF04240EE000240CE00924AD
:1051D0000AE0082408E00B244FF0010804E00F2443
:1051E0004FF0010800E0D9E700BF734800EB05105D
:1051F000027B714800EB051023460168384613F026
:1052000088FC6D4800EB0510406888B1B8F1000FCC
:1052100001D0012000E000200346674800EB0510A4
:10522000427B654800EB05104168654800F0EBF9EA
:1052300000BFB3E72DE9F04107460C4615461E4670
:105240005D4800EB04102A4641685D4800F07DFA95
:10525000594800EB0410427B574800EB04103346DA
:105260004168574800F0A3FABDE8F081F0B5054663
:10527000514C04EB011460684F4C04EB0114637B48
:10528000066834365F1E06EB8704226000BFF0BD5F
:105290000346494A02EB011250680268D26A92B290
:1052A0001046704730B50446434B03EB01131868B2
:1052B000414B03EB01131A7B03689B680125954062
:1052C0002B400BB1012030BD0020FCE7F0B50546B6
:1052D000394E06EB01163068374E06EB0116337B6C
:1052E000144624B101269E4007683E6103E0012672
:1052F0009E4007687E6100BFF0BD30B503462E4C6E
:1053000004EB011420682C4C04EB0114227B04688C
:10531000E468012595406C400568EC6000BF30BD35
:1053200070B505460E46144631462846FFF7BAFFCB
:10533000A0420CD10120DFF88CC000DF00BF314655
:105340002846FFF7AFFFA042F9D0012070BD002032
:10535000FCE72DE9F04706460F4690461C46DFF86D
:1053600068C000DF814654B900BF42463946304626
:10537000FFF7D6FF0028F8D00120BDE8F08700BF76
:10538000DFF844C000DF0546DFF83CC000DF401B0B
:10539000A04201D90020F0E7424639463046FFF7E7
:1053A000BFFF0028ECD00120E7E700B50749084817
:1053B000FFF7E2FE00BD00009CFB01084501002054
:1053C00044010020F1CD010819D701086C0000202C
:1053D0008C0000202DE9F0478046D8F80050E8689E
:1053E000296900EA010608F10807002400BF16F049
:1053F000100F08D0D7F81090B9F1000F00D0C847AF
:1054000044F0100400BF00BF00BF16F0080F08D022
:10541000D7F80890B9F1000F00D0C84744F008044D
:1054200000BF00BF00BF16F0040F08D0D7F80490EB
:10543000B9F1000F00D0C84744F0040400BF00BF1A
:1054400000BF16F0020F08D0D7F80090B9F1000F96
:1054500000D0C84744F0020400BF00BF2869A04341
:105460002861BDE8F0872DE9F0478046D8F8007044
:10547000F868396900EA010508F10806002400BF50
:1054800015F0200F08D0D6F81490B9F1000F00D015
:10549000C84744F0200400BF00BF00BF15F0100F44
:1054A00008D0D6F80C90B9F1000F00D0C84744F0EE
:1054B000100400BF00BF00BF15F0080F08D0D6F8D9
:1054C0000890B9F1000F00D0C84744F0080400BFAD
:1054D00000BF00BF15F0040F08D0D6F80490B9F152
:1054E000000F00D0C84744F0040400BF00BF00BF55
:1054F00015F0020F08D0D6F80090B9F1000F00D0D7
:10550000C84744F0020400BF00BF00BF15F0010F00
:1055100008D0D6F81090B9F1000F00D0C84744F079
:10552000010400BF00BF3869A0433861BDE8F087BF
:1055300010B5C6480068FFF74DFF10BD10B5C44850
:105540000068FFF790FF10BD10B5C2480068FFF774
:105550008AFF10BD10B5C0480068FFF784FF10BD7A
:1055600010B5BE480068FFF77EFF10BD704770B5EC
:1055700006460C4615466A1E9100226802F120007C
:1055800001F0EEF90121016070BD2DE9F041844682
:10559000069E0F681837A2F10108C8F3400807EB10
:1055A000880402F00107C7F10107FD002068FF270A
:1055B000AF40B84343EA0607AF4038432060BDE838
:1055C000F08130B50B68DB6801249440A3430C687C
:1055D000E3600025531E01F1080444F8235030BD58
:1055E00070B506460C4615462A4621463046FFF75A
:1055F000E8FF2068006A691E8A0001219140884303
:105600002168086270BDF8B506460C4617461D466F
:105610006079022800D1F8BD25B1012D08D0022DF6
:105620001ED11CE03A4621463046FFF7D9FF17E06D
:105630003A4621463046FFF7D3FF002060233A4622
:10564000214600903046FFF7A0FF80480068844262
:1056500004D03A4621463046FFF789FF00E000BFFC
:1056600000BF00BFD7E72DE9F84306460C464FF6CA
:10567000FF7748F6FF782179794800F0FAF800BF03
:105680002068008820F001002168088000BF2068A1
:10569000008820F080008030216808800120216887
:1056A00088620020216808612168C86020688089BC
:1056B00020F00100216888813A462146304613F0E7
:1056C000A5FA012514E0284648F6FF712368343313
:1056D000A0F1010C03EB8C02116000BF00206023DD
:1056E0002A46214600903046FFF74FFF681CC5B29E
:1056F000042DE8DD2068808A20F00100401C21682C
:10570000888200BF2068008820F00100401C2168CA
:10571000088000BFBDE8F88310B50B68DB68012482
:105720009440A3430C68E36010BD10B50B681B697F
:1057300001249440A3430C6823610B68DC680123B7
:1057400093401C430B68DC6010BD2DE9F047814697
:10575000884615467DB901224146484613F059FA5C
:1057600001224146484613F051FAD8F80000C06AB9
:1057700080B2BDE8F0873B4805FB00F64FF6FF70AE
:10578000B6FBF0F0401C84B204EBD47106EB61016F
:10579000B1FBF4F18FB222464146484613F039FA84
:1057A0003A464146484613F031FA3846E1E72DE9DA
:1057B000F04107460C4615461E466A1E9200511CD3
:1057C000226802F1200001F0CBF80EB9012100E0BF
:1057D00000210160BDE8F0812DE9F04107460C464B
:1057E00015461E46681E04F1080141F82060206835
:1057F000C0680121A94008432168C86020791A289F
:1058000004D11B21184801F039FB16E020791B2830
:1058100004D11C21144801F031FB0EE020791C2832
:1058200004D11D21104801F029FB06E020791D2834
:1058300003D11E210C4801F021FBBDE8F08100B529
:1058400000210A48FFF792FE00BD00003001002051
:1058500034010020380100203C01002040010020DC
:1058600045010020401901003002002044010020C1
:10587000704770B505460C46484810F814000228D9
:1058800009D1464901EB44014A78012101FA02F0AD
:10589000FEF737FF1BE0414810F8140048B93F49B4
:1058A00001EB44014A78012101FA02F0FEF743FFBF
:1058B0000DE03A4810F81400012808D1374901EBEF
:1058C00044014A78012101FA02F0FEF727FF70BD7A
:1058D00070B505460C46314810F8140002280AD16C
:1058E0002E4901EB44014A78012101FA02F000211E
:1058F000FEF707FF1DE0294810F8140050B92749AA
:1059000001EB44014A78012101FA02F00021FEF77F
:1059100012FF0EE0214810F81400012809D11F4998
:1059200001EB44014A78012101FA02F00021FEF75F
:10593000F5FE70BD70B505460C46184810F8140009
:1059400048B9164901EB44014A78012101FA02F0F5
:10595000FEF70BFF0DE0114810F81400012808D1E4
:105960000E4901EB44014A78012101FA02F0FEF7E9
:10597000EFFE70BD30B50446094B0A4D686853F818
:105980002150A8431043074D686000BF30BD00B5EB
:1059900001210548FFF76CFF00BD00008CFE0108E7
:1059A000E8FE0108001002404501002070B50546E0
:1059B0000C4605E014F8011B286802682846904749
:1059C00020780028F6D170BD2DE9F04104460D463F
:1059D00016462F4605E017F8011B2068026820468E
:1059E00090473000A6F10106F5D1BDE8F0812DE920
:1059F000F05F8A4614461D460A9F012605B9052513
:105A000007B902274FF0000B06E0FE49504619F097
:105A100057FD82460BF1010BBB45F6DB504619F0F2
:105A200089FC80460021504619F016FD04D22D2035
:105A300004F8010BC8F1000805EB0709012003E099
:105A400006EB86014E00401C4845F9DB002016E0BD
:105A5000A84202D12E2104F8011B98FBF6F10A227C
:105A600091FBF2F302FB1311303104F8011B0A2EF3
:105A700003DD0A2196FBF1F600E00126401C4845B3
:105A8000E6DB00202070BDE8F09F2DE9F04384465E
:105A90000C461D461146002C01DA2D26644218E002
:105AA00094FBF5F005FB1040DFF85C8318F800006C
:105AB00001F8010B94FBF5F4AC420ADA4046005DB4
:105AC00001F8010B2D2E01D101F8016B00200870A7
:105AD00001E0002CE4D100BF881A471E002309E032
